{
  "_format": "hh-sol-artifact-1",
  "contractName": "EngagementRewarder",
  "sourceName": "contracts/EngagementRewarder.sol",
  "abi": [
    {
      "inputs": [
        {
          "internalType": "address",
          "name": "_rizeToken",
          "type": "address"
        },
        {
          "internalType": "uint256",
          "name": "_rewardAmount",
          "type": "uint256"
        }
      ],
      "stateMutability": "nonpayable",
      "type": "constructor"
    },
    {
      "inputs": [
        {
          "internalType": "address",
          "name": "owner",
          "type": "address"
        }
      ],
      "name": "OwnableInvalidOwner",
      "type": "error"
    },
    {
      "inputs": [
        {
          "internalType": "address",
          "name": "account",
          "type": "address"
        }
      ],
      "name": "OwnableUnauthorizedAccount",
      "type": "error"
    },
    {
      "anonymous": false,
      "inputs": [
        {
          "indexed": true,
          "internalType": "address",
          "name": "previousOwner",
          "type": "address"
        },
        {
          "indexed": true,
          "internalType": "address",
          "name": "newOwner",
          "type": "address"
        }
      ],
      "name": "OwnershipTransferred",
      "type": "event"
    },
    {
      "anonymous": false,
      "inputs": [
        {
          "indexed": true,
          "internalType": "address",
          "name": "user",
          "type": "address"
        },
        {
          "indexed": false,
          "internalType": "uint256",
          "name": "amount",
          "type": "uint256"
        }
      ],
      "name": "UserRewarded",
      "type": "event"
    },
    {
      "inputs": [],
      "name": "owner",
      "outputs": [
        {
          "internalType": "address",
          "name": "",
          "type": "address"
        }
      ],
      "stateMutability": "view",
      "type": "function"
    },
    {
      "inputs": [],
      "name": "renounceOwnership",
      "outputs": [],
      "stateMutability": "nonpayable",
      "type": "function"
    },
    {
      "inputs": [],
      "name": "rewardAmount",
      "outputs": [
        {
          "internalType": "uint256",
          "name": "",
          "type": "uint256"
        }
      ],
      "stateMutability": "view",
      "type": "function"
    },
    {
      "inputs": [
        {
          "internalType": "address",
          "name": "user",
          "type": "address"
        }
      ],
      "name": "rewardUser",
      "outputs": [],
      "stateMutability": "nonpayable",
      "type": "function"
    },
    {
      "inputs": [],
      "name": "rizeToken",
      "outputs": [
        {
          "internalType": "contract RizeToken",
          "name": "",
          "type": "address"
        }
      ],
      "stateMutability": "view",
      "type": "function"
    },
    {
      "inputs": [
        {
          "internalType": "uint256",
          "name": "_amount",
          "type": "uint256"
        }
      ],
      "name": "setRewardAmount",
      "outputs": [],
      "stateMutability": "nonpayable",
      "type": "function"
    },
    {
      "inputs": [
        {
          "internalType": "address",
          "name": "newOwner",
          "type": "address"
        }
      ],
      "name": "transferOwnership",
      "outputs": [],
      "stateMutability": "nonpayable",
      "type": "function"
    }
  ],
  "bytecode": "0x608060405234801561001057600080fd5b50604051610a60380380610a6083398181016040528101906100329190610261565b33600073ffffffffffffffffffffffffffffffffffffffff168173ffffffffffffffffffffffffffffffffffffffff16036100a55760006040517f1e4fbdf700000000000000000000000000000000000000000000000000000000815260040161009c91906102b0565b60405180910390fd5b6100b48161010460201b60201c565b5081600160006101000a81548173ffffffffffffffffffffffffffffffffffffffff021916908373ffffffffffffffffffffffffffffffffffffffff1602179055508060028190555050506102cb565b60008060009054906101000a900473ffffffffffffffffffffffffffffffffffffffff169050816000806101000a81548173ffffffffffffffffffffffffffffffffffffffff021916908373ffffffffffffffffffffffffffffffffffffffff1602179055508173ffffffffffffffffffffffffffffffffffffffff168173ffffffffffffffffffffffffffffffffffffffff167f8be0079c531659141344cd1fd0a4f28419497f9722a3daafe3b4186f6b6457e060405160405180910390a35050565b600080fd5b600073ffffffffffffffffffffffffffffffffffffffff82169050919050565b60006101f8826101cd565b9050919050565b610208816101ed565b811461021357600080fd5b50565b600081519050610225816101ff565b92915050565b6000819050919050565b61023e8161022b565b811461024957600080fd5b50565b60008151905061025b81610235565b92915050565b60008060408385031215610278576102776101c8565b5b600061028685828601610216565b92505060206102978582860161024c565b9150509250929050565b6102aa816101ed565b82525050565b60006020820190506102c560008301846102a1565b92915050565b610786806102da6000396000f3fe608060405234801561001057600080fd5b506004361061007d5760003560e01c8063a6afd7db1161005b578063a6afd7db146100c8578063a8a65a78146100e4578063f2fde38b14610100578063f7b2a7be1461011c5761007d565b80632c641b9114610082578063715018a6146100a05780638da5cb5b146100aa575b600080fd5b61008a61013a565b6040516100979190610568565b60405180910390f35b6100a8610160565b005b6100b2610174565b6040516100bf91906105a4565b60405180910390f35b6100e260048036038101906100dd91906105f0565b61019d565b005b6100fe60048036038101906100f99190610653565b6102f8565b005b61011a600480360381019061011591906105f0565b61030a565b005b610124610390565b604051610131919061068f565b60405180910390f35b600160009054906101000a900473ffffffffffffffffffffffffffffffffffffffff1681565b610168610396565b610172600061041d565b565b60008060009054906101000a900473ffffffffffffffffffffffffffffffffffffffff16905090565b6101a5610396565b600073ffffffffffffffffffffffffffffffffffffffff168173ffffffffffffffffffffffffffffffffffffffff1603610214576040517f08c379a000000000000000000000000000000000000000000000000000000000815260040161020b90610707565b60405180910390fd5b600160009054906101000a900473ffffffffffffffffffffffffffffffffffffffff1673ffffffffffffffffffffffffffffffffffffffff166340c10f19826002546040518363ffffffff1660e01b8152600401610273929190610727565b600060405180830381600087803b15801561028d57600080fd5b505af11580156102a1573d6000803e3d6000fd5b505050508073ffffffffffffffffffffffffffffffffffffffff167fe366ef68d2c0620e9e4c5074fd7ad0ce6739b65287f9c2d09b7d002da556879b6002546040516102ed919061068f565b60405180910390a250565b610300610396565b8060028190555050565b610312610396565b600073ffffffffffffffffffffffffffffffffffffffff168173ffffffffffffffffffffffffffffffffffffffff16036103845760006040517f1e4fbdf700000000000000000000000000000000000000000000000000000000815260040161037b91906105a4565b60405180910390fd5b61038d8161041d565b50565b60025481565b61039e6104e1565b73ffffffffffffffffffffffffffffffffffffffff166103bc610174565b73ffffffffffffffffffffffffffffffffffffffff161461041b576103df6104e1565b6040517f118cdaa700000000000000000000000000000000000000000000000000000000815260040161041291906105a4565b60405180910390fd5b565b60008060009054906101000a900473ffffffffffffffffffffffffffffffffffffffff169050816000806101000a81548173ffffffffffffffffffffffffffffffffffffffff021916908373ffffffffffffffffffffffffffffffffffffffff1602179055508173ffffffffffffffffffffffffffffffffffffffff168173ffffffffffffffffffffffffffffffffffffffff167f8be0079c531659141344cd1fd0a4f28419497f9722a3daafe3b4186f6b6457e060405160405180910390a35050565b600033905090565b600073ffffffffffffffffffffffffffffffffffffffff82169050919050565b6000819050919050565b600061052e610529610524846104e9565b610509565b6104e9565b9050919050565b600061054082610513565b9050919050565b600061055282610535565b9050919050565b61056281610547565b82525050565b600060208201905061057d6000830184610559565b92915050565b600061058e826104e9565b9050919050565b61059e81610583565b82525050565b60006020820190506105b96000830184610595565b92915050565b600080fd5b6105cd81610583565b81146105d857600080fd5b50565b6000813590506105ea816105c4565b92915050565b600060208284031215610606576106056105bf565b5b6000610614848285016105db565b91505092915050565b6000819050919050565b6106308161061d565b811461063b57600080fd5b50565b60008135905061064d81610627565b92915050565b600060208284031215610669576106686105bf565b5b60006106778482850161063e565b91505092915050565b6106898161061d565b82525050565b60006020820190506106a46000830184610680565b92915050565b600082825260208201905092915050565b7f496e76616c696420757365722061646472657373000000000000000000000000600082015250565b60006106f16014836106aa565b91506106fc826106bb565b602082019050919050565b60006020820190508181036000830152610720816106e4565b9050919050565b600060408201905061073c6000830185610595565b6107496020830184610680565b939250505056fea26469706673582212205e5b034f73f12edfae233d3dce6de8f0b742874f3b0ee72fe8e4eb191bc20c0b64736f6c634300081c0033",
  "linkReferences": {},
  "deployedLinkReferences": {}
}